{
  "_format": "hh-sol-artifact-1",
  "contractName": "RealifiFractionalToken",
  "sourceName": "contracts/RealifiFractionalToken.sol",
  "abi": [
    {
      "inputs": [],
      "stateMutability": "nonpayable",
      "type": "constructor"
    },
    {
      "inputs": [],
      "name": "NotAuthorized",
      "type": "error"
    },
    {
      "anonymous": false,
      "inputs": [
        {
          "indexed": true,
          "internalType": "address",
          "name": "owner",
          "type": "address"
        },
        {
          "indexed": true,
          "internalType": "address",
          "name": "spender",
          "type": "address"
        },
        {
          "indexed": false,
          "internalType": "uint256",
          "name": "value",
          "type": "uint256"
        }
      ],
      "name": "Approval",
      "type": "event"
    },
    {
      "anonymous": false,
      "inputs": [
        {
          "indexed": true,
          "internalType": "address",
          "name": "previousOwner",
          "type": "address"
        },
        {
          "indexed": true,
          "internalType": "address",
          "name": "newOwner",
          "type": "address"
        }
      ],
      "name": "OwnershipTransferred",
      "type": "event"
    },
    {
      "anonymous": false,
      "inputs": [
        {
          "indexed": true,
          "internalType": "address",
          "name": "from",
          "type": "address"
        },
        {
          "indexed": true,
          "internalType": "address",
          "name": "to",
          "type": "address"
        },
        {
          "indexed": false,
          "internalType": "uint256",
          "name": "value",
          "type": "uint256"
        }
      ],
      "name": "Transfer",
      "type": "event"
    },
    {
      "inputs": [
        {
          "internalType": "address",
          "name": "owner",
          "type": "address"
        },
        {
          "internalType": "address",
          "name": "spender",
          "type": "address"
        }
      ],
      "name": "allowance",
      "outputs": [
        {
          "internalType": "uint256",
          "name": "",
          "type": "uint256"
        }
      ],
      "stateMutability": "view",
      "type": "function"
    },
    {
      "inputs": [
        {
          "internalType": "address",
          "name": "spender",
          "type": "address"
        },
        {
          "internalType": "uint256",
          "name": "amount",
          "type": "uint256"
        }
      ],
      "name": "approve",
      "outputs": [
        {
          "internalType": "bool",
          "name": "",
          "type": "bool"
        }
      ],
      "stateMutability": "nonpayable",
      "type": "function"
    },
    {
      "inputs": [
        {
          "internalType": "address",
          "name": "account",
          "type": "address"
        }
      ],
      "name": "balanceOf",
      "outputs": [
        {
          "internalType": "uint256",
          "name": "",
          "type": "uint256"
        }
      ],
      "stateMutability": "view",
      "type": "function"
    },
    {
      "inputs": [],
      "name": "decimals",
      "outputs": [
        {
          "internalType": "uint8",
          "name": "",
          "type": "uint8"
        }
      ],
      "stateMutability": "view",
      "type": "function"
    },
    {
      "inputs": [
        {
          "internalType": "address",
          "name": "spender",
          "type": "address"
        },
        {
          "internalType": "uint256",
          "name": "subtractedValue",
          "type": "uint256"
        }
      ],
      "name": "decreaseAllowance",
      "outputs": [
        {
          "internalType": "bool",
          "name": "",
          "type": "bool"
        }
      ],
      "stateMutability": "nonpayable",
      "type": "function"
    },
    {
      "inputs": [
        {
          "internalType": "address",
          "name": "spender",
          "type": "address"
        },
        {
          "internalType": "uint256",
          "name": "addedValue",
          "type": "uint256"
        }
      ],
      "name": "increaseAllowance",
      "outputs": [
        {
          "internalType": "bool",
          "name": "",
          "type": "bool"
        }
      ],
      "stateMutability": "nonpayable",
      "type": "function"
    },
    {
      "inputs": [
        {
          "internalType": "address",
          "name": "to",
          "type": "address"
        },
        {
          "internalType": "uint256",
          "name": "amount",
          "type": "uint256"
        }
      ],
      "name": "mint",
      "outputs": [],
      "stateMutability": "nonpayable",
      "type": "function"
    },
    {
      "inputs": [],
      "name": "name",
      "outputs": [
        {
          "internalType": "string",
          "name": "",
          "type": "string"
        }
      ],
      "stateMutability": "view",
      "type": "function"
    },
    {
      "inputs": [],
      "name": "owner",
      "outputs": [
        {
          "internalType": "address",
          "name": "",
          "type": "address"
        }
      ],
      "stateMutability": "view",
      "type": "function"
    },
    {
      "inputs": [],
      "name": "reaLiFi",
      "outputs": [
        {
          "internalType": "address",
          "name": "",
          "type": "address"
        }
      ],
      "stateMutability": "view",
      "type": "function"
    },
    {
      "inputs": [],
      "name": "renounceOwnership",
      "outputs": [],
      "stateMutability": "nonpayable",
      "type": "function"
    },
    {
      "inputs": [
        {
          "internalType": "address",
          "name": "_reaLiFi",
          "type": "address"
        }
      ],
      "name": "setReaLiFi",
      "outputs": [],
      "stateMutability": "nonpayable",
      "type": "function"
    },
    {
      "inputs": [],
      "name": "symbol",
      "outputs": [
        {
          "internalType": "string",
          "name": "",
          "type": "string"
        }
      ],
      "stateMutability": "view",
      "type": "function"
    },
    {
      "inputs": [],
      "name": "totalSupply",
      "outputs": [
        {
          "internalType": "uint256",
          "name": "",
          "type": "uint256"
        }
      ],
      "stateMutability": "view",
      "type": "function"
    },
    {
      "inputs": [
        {
          "internalType": "address",
          "name": "to",
          "type": "address"
        },
        {
          "internalType": "uint256",
          "name": "amount",
          "type": "uint256"
        }
      ],
      "name": "transfer",
      "outputs": [
        {
          "internalType": "bool",
          "name": "",
          "type": "bool"
        }
      ],
      "stateMutability": "nonpayable",
      "type": "function"
    },
    {
      "inputs": [
        {
          "internalType": "address",
          "name": "from",
          "type": "address"
        },
        {
          "internalType": "address",
          "name": "to",
          "type": "address"
        },
        {
          "internalType": "uint256",
          "name": "amount",
          "type": "uint256"
        }
      ],
      "name": "transferFrom",
      "outputs": [
        {
          "internalType": "bool",
          "name": "",
          "type": "bool"
        }
      ],
      "stateMutability": "nonpayable",
      "type": "function"
    },
    {
      "inputs": [
        {
          "internalType": "address",
          "name": "newOwner",
          "type": "address"
        }
      ],
      "name": "transferOwnership",
      "outputs": [],
      "stateMutability": "nonpayable",
      "type": "function"
    }
  ],
  "bytecode": "0x60806040523461037f57604080519081016001600160401b0381118282101761028a576040908152601682527f5265616c6966694672616374696f6e616c546f6b656e00000000000000000000602083015280519081016001600160401b0381118282101761028a57604052600381526214919560ea1b602082015281516001600160401b03811161028a57600354600181811c91168015610375575b602082101461026a57601f8111610310575b50602092601f82116001146102ab57928192936000926102a0575b50508160011b916000199060031b1c1916176003555b80516001600160401b03811161028a57600454600181811c91168015610280575b602082101461026a57601f8111610205575b50602091601f82116001146101a157918192600092610196575b50508160011b916000199060031b1c1916176004555b60058054336001600160a01b03198216811790925560405191906001600160a01b03167f8be0079c531659141344cd1fd0a4f28419497f9722a3daafe3b4186f6b6457e0600080a3610c0b90816103858239f35b01519050388061012c565b601f198216926004600052806000209160005b8581106101ed575083600195106101d4575b505050811b01600455610142565b015160001960f88460031b161c191690553880806101c6565b919260206001819286850151815501940192016101b4565b60046000527f8a35acfbc15ff81a39ae7d344fd709f28e8600b4aa8c65c6b64bfe7fe36bd19b601f830160051c81019160208410610260575b601f0160051c01905b8181106102545750610112565b60008155600101610247565b909150819061023e565b634e487b7160e01b600052602260045260246000fd5b90607f1690610100565b634e487b7160e01b600052604160045260246000fd5b0151905038806100c9565b601f198216936003600052806000209160005b8681106102f857508360019596106102df575b505050811b016003556100df565b015160001960f88460031b161c191690553880806102d1565b919260206001819286850151815501940192016102be565b60036000527fc2575a0e9e593c00f959f8c92f12db2869c3395a3b0502d05e2516446f71f85b601f830160051c8101916020841061036b575b601f0160051c01905b81811061035f57506100ae565b60008155600101610352565b9091508190610349565b90607f169061009c565b600080fdfe608080604052600436101561001357600080fd5b60003560e01c90816306fdde031461078b57508063095ea7b31461076557806318160ddd1461074757806323b872dd14610689578063313ce5671461066d578063395093511461061b57806340c10f191461051d57806370a08231146104e3578063715018a6146104865780638da5cb5b1461045d57806395d89b411461033c578063a457c2d714610295578063a9059cbb14610264578063b54627461461023b578063bc399ea3146101f8578063dd62ed3e146101a75763f2fde38b146100da57600080fd5b346101a25760203660031901126101a2576100f36108a7565b6100fb610b7d565b6001600160a01b0316801561014e57600580546001600160a01b0319811683179091556001600160a01b03167f8be0079c531659141344cd1fd0a4f28419497f9722a3daafe3b4186f6b6457e0600080a3005b60405162461bcd60e51b815260206004820152602660248201527f4f776e61626c653a206e6577206f776e657220697320746865207a65726f206160448201526564647265737360d01b6064820152608490fd5b600080fd5b346101a25760403660031901126101a2576101c06108a7565b6101c86108bd565b6001600160a01b039182166000908152600160209081526040808320949093168252928352819020549051908152f35b346101a25760203660031901126101a2576102116108a7565b610219610b7d565b600680546001600160a01b0319166001600160a01b0392909216919091179055005b346101a25760003660031901126101a2576006546040516001600160a01b039091168152602090f35b346101a25760403660031901126101a25761028a6102806108a7565b60243590336109fe565b602060405160018152f35b346101a25760403660031901126101a2576102ae6108a7565b60243590336000526001602052604060002060018060a01b038216600052602052604060002054918083106102e95761028a920390336108f6565b60405162461bcd60e51b815260206004820152602560248201527f45524332303a2064656372656173656420616c6c6f77616e63652062656c6f77604482015264207a65726f60d81b6064820152608490fd5b346101a25760003660031901126101a25760405160006004548060011c90600181168015610453575b60208310811461043f5782855290811561042357506001146103cc575b50819003601f01601f191681019067ffffffffffffffff8211818310176103b6576103b28291826040528261085e565b0390f35b634e487b7160e01b600052604160045260246000fd5b905060046000527f8a35acfbc15ff81a39ae7d344fd709f28e8600b4aa8c65c6b64bfe7fe36bd19b6000905b82821061040d57506020915082010182610382565b60018160209254838588010152019101906103f8565b90506020925060ff191682840152151560051b82010182610382565b634e487b7160e01b84526022600452602484fd5b91607f1691610365565b346101a25760003660031901126101a2576005546040516001600160a01b039091168152602090f35b346101a25760003660031901126101a25761049f610b7d565b600580546001600160a01b031981169091556000906001600160a01b03167f8be0079c531659141344cd1fd0a4f28419497f9722a3daafe3b4186f6b6457e08280a3005b346101a25760203660031901126101a2576001600160a01b036105046108a7565b1660005260006020526020604060002054604051908152f35b346101a25760403660031901126101a2576105366108a7565b6024359060018060a01b036005541633141580610606575b6105f5576001600160a01b03169081156105b0577fddf252ad1be2c89b69c2b068fc378daa952ba7f163c4a11628f55a4df523b3ef6020826105946000946002546108d3565b60025584845283825260408420818154019055604051908152a3005b60405162461bcd60e51b815260206004820152601f60248201527f45524332303a206d696e7420746f20746865207a65726f2061646472657373006044820152606490fd5b63ea8e4eb560e01b60005260046000fd5b506006546001600160a01b031633141561054e565b346101a25760403660031901126101a25761028a6106376108a7565b336000526001602052604060002060018060a01b038216600052602052610666604060002060243590546108d3565b90336108f6565b346101a25760003660031901126101a257602060405160128152f35b346101a25760603660031901126101a2576106a26108a7565b6106aa6108bd565b6001600160a01b03821660009081526001602081815260408084203385529091529091205492604435929184016106e6575b61028a93506109fe565b828410610702576106fd8361028a950333836108f6565b6106dc565b60405162461bcd60e51b815260206004820152601d60248201527f45524332303a20696e73756666696369656e7420616c6c6f77616e63650000006044820152606490fd5b346101a25760003660031901126101a2576020600254604051908152f35b346101a25760403660031901126101a25761028a6107816108a7565b60243590336108f6565b346101a25760003660031901126101a25760006003548060011c90600181168015610854575b60208310811461043f5782855290811561042357506001146107fd5750819003601f01601f191681019067ffffffffffffffff8211818310176103b6576103b28291826040528261085e565b905060036000527fc2575a0e9e593c00f959f8c92f12db2869c3395a3b0502d05e2516446f71f85b6000905b82821061083e57506020915082010182610382565b6001816020925483858801015201910190610829565b91607f16916107b1565b91909160208152825180602083015260005b818110610891575060409293506000838284010152601f8019910116010190565b8060208092870101516040828601015201610870565b600435906001600160a01b03821682036101a257565b602435906001600160a01b03821682036101a257565b919082018092116108e057565b634e487b7160e01b600052601160045260246000fd5b6001600160a01b03169081156109ad576001600160a01b031691821561095d5760207f8c5be1e5ebec7d5bd14f71427d1e84f3dd0314c0f7b2291e5b200ac8c7c3b925918360005260018252604060002085600052825280604060002055604051908152a3565b60405162461bcd60e51b815260206004820152602260248201527f45524332303a20617070726f766520746f20746865207a65726f206164647265604482015261737360f01b6064820152608490fd5b60405162461bcd60e51b8152602060048201526024808201527f45524332303a20617070726f76652066726f6d20746865207a65726f206164646044820152637265737360e01b6064820152608490fd5b6001600160a01b0316908115610b2a576001600160a01b0316918215610ad957816000526000602052604060002054818110610a8557817fddf252ad1be2c89b69c2b068fc378daa952ba7f163c4a11628f55a4df523b3ef9260209285600052600084520360406000205584600052600082526040600020818154019055604051908152a3565b60405162461bcd60e51b815260206004820152602660248201527f45524332303a207472616e7366657220616d6f756e7420657863656564732062604482015265616c616e636560d01b6064820152608490fd5b60405162461bcd60e51b815260206004820152602360248201527f45524332303a207472616e7366657220746f20746865207a65726f206164647260448201526265737360e81b6064820152608490fd5b60405162461bcd60e51b815260206004820152602560248201527f45524332303a207472616e736665722066726f6d20746865207a65726f206164604482015264647265737360d81b6064820152608490fd5b6005546001600160a01b03163303610b9157565b606460405162461bcd60e51b815260206004820152602060248201527f4f776e61626c653a2063616c6c6572206973206e6f7420746865206f776e65726044820152fdfea26469706673582212209251232f82341f4eab64ca61b98754a166823f384eeeffa125336edb3f72c9a164736f6c634300081c0033",
  "linkReferences": {},
  "deployedLinkReferences": {}
}